:020000040800F2
:1000000000000220BD250008092600080926000876
:10001000092600080926000809260008000000003B
:100020000000000000000000000000000926000899
:100030000926000800000000F12200083D24000805
:1000400009260008092600080926000809260008D4
:1000500009260008092600080926000809260008C4
:1000600009260008092600080926000809260008B4
:1000700009260008092600080926000809260008A4
:1000800009260008092600080926000800000000CB
:100090000000000000000000000000000926000829
:1000A0000926000809260008092600080926000874
:1000B0000926000809260008092600080926000864
:1000C0000926000809260008092600080926000854
:1000D000092600080926000809260008000000007B
:1000E000092600080926000809260008000000006B
:1000F00000000000000000000000000009260008C9
:1001000000000000092600089D21000809260008BB
:1001100000000000000000000000000000000000DF
:1001200009260008092600080926000809260008F3
:10013000091F00080000000000000000000000008F
:100140000000000000000000000000000926000878
:1001500009260008092600080926000809260008C3
:100160000926000809260008000000000000000021
:10017000000000000000000000000000000000007F
:100180000000000009260008000000000000000038
:10019000092600080926000810B5054C237833B954
:1001A000044B13B10448AFF300800123237010BD4A
:1001B000040200200000000024290008084B10B5AC
:1001C0001BB108490848AFF300800848036803B929
:1001D00010BD074B002BFBD0BDE81040184700BFF7
:1001E000000000000802002024290008000200206E
:1001F00000000000154B002B08BF134B9D46A3F5D4
:10020000803A00218B460F461348144A121A02F016
:1002100037FA0F4B002B00D098470E4B002B00D025
:1002200098470020002104000D000D48002802D04E
:100230000C48AFF3008002F0FDF92000290000F027
:1002400013F802F0E3F900BF0000080000000220EC
:100250000000000000000000040200203C06002016
:100260000000000000000000AB4EAC4C336BAC4D06
:10027000DFF8BC92DFF8BC8243F08F032DE98048A1
:100280003363336C43F400333364236A23F47063C1
:100290002362236A43F4E0632362236A23F47043F6
:1002A0002362236A43F4E0432362236823F030038C
:1002B0002360236843F020032360236823F0C003F6
:1002C0002360236843F080032360A36823F0300396
:1002D000A360A36863F03003A360A36823F0C003A6
:1002E000A360A36863F0C003A360E36823F0300356
:1002F000E360E36823F0C003E3608A4BDA6822F42A
:100300000052DA60DA6822F4164222F00C0242F05F
:100310000C02DA604FF4D9729A601A6922F4F04242
:100320001A615A6922F44A7222F002025A61DA68AA
:1003300042F40052DA60736C43F010037364636A32
:1003400023F0F0036362636A43F070036362636ADD
:1003500023F470636362636A43F4E0636362236857
:1003600023F440232360236843F40023236023689D
:1003700023F440132360236843F400132360A3682D
:1003800023F44023A360A36863F44023A360A3681D
:1003900023F44013A360A36863F44013A360E368ED
:1003A00023F44023E360E36823F44013E3605E4BEF
:1003B000DA6822F40052DA60DA6822F4164222F097
:1003C0000C0242F00C02DA604FF459729A601A691A
:1003D00022F4F0421A615A6922F44A7222F00202AF
:1003E0005A61DA6842F40052DA60E36823F4401399
:1003F000E360236823F440132360236843F48013ED
:100400002360A36823F44013A360A3684FF08062C5
:1004100063F44013A360A261EB6823F44073EB60C4
:100420002B6823F440732B602B6843F480732B609C
:10043000AB6823F44073AB60AB6863F44073AB60AC
:100440004FF48013AB61394BD96821F44041D96036
:10045000196821F44041196019681960D96821F4BC
:100460004041D960EB6823F0C003EB602B6823F0B8
:10047000C0032B602B6843F040032B60AB6823F074
:10048000C003AB60AB6863F0C003AB604FF4002304
:10049000AB61EB6823F44013EB602B6823F440134B
:1004A0002B602B6843F480132B60AB6823F440135C
:1004B000AB60AB6863F44013AB60AA61EB6823F4F4
:1004C0004053EB602B6823F440532B602B682B6068
:1004D000EB6823F44053EB60E36823F44053E3609C
:1004E000236823F440532360236843F4805323603C
:1004F000A36823F44053A360A36863F44053A3604C
:100500004FF48003A361E36823F44063E36023684E
:1005100023F4406323600FE00038024000000240F3
:100520000004024000440040001001400008024066
:100530003A06002000ED00E0236843F48063236066
:10054000A36823F44063A360A36863F44063A360DB
:100550004FF40013A361E36823F44023E3602368AE
:1005600023F440232360236843F480232360A3689B
:1005700023F44023A360A36863F44023A36000270F
:100580004FF4007A4FF00073C4F818A0A36189F803
:100590000070D8F80C304FF6FF021A40A34B1343FB
:1005A000C8F80C30D8F80C0089B03A460121C0F3E5
:1005B000022001F079FF9E4B9E4A0001C0B288F8EC
:1005C00023005A6007229F601A60D8F80C003A4650
:1005D0000221C0F3022001F067FF0001C0B288F8D9
:1005E0002200336C43F008033364934B4FF0FF3227
:1005F0005A631A6822F47F7222F003021A601A68A2
:1006000042F001021A60D8F80C003A463946C0F3AD
:10061000022001F049FF894B00014FF48022C0B253
:1006200083F832035A60336C43F001033364236868
:1006300023F440632360236843F400632360236A48
:1006400023F470032362236A43F480132362A368B4
:1006500023F44063A360A36863F44063A360E3688A
:1006600023F44063E3604FF08043754C1A6842F016
:1006700080021A60FE22DA6226225F639A629A6919
:1006800042F068029A611A6A42F001021A621A6A1A
:1006900022F002021A625A6942F001025A611A6893
:1006A00042F001021A60674BCDF818904FF40052E7
:1006B00083E804044FF4C0429A604FF4C0729A81F8
:1006C000236913B9322323642361A28A5C4B22B9C4
:1006D0004FF48072A3F844209A82E28A584B22B9E0
:1006E0004FF48072A3F84620DA82574A136B43F422
:1006F00080031363554B1A6822F001021A601946F1
:100700000A68524BD707FBD4514A9A60514ADA60C3
:1007100006225A605A6922F004025A614E4A1A604F
:100720001A6842F001021A600B68DE07FCD54B4BD9
:10073000D86803221146C0F3022001F0B5FE3F4BFA
:100740000001C0B24FF0805283F83C035A603E4A29
:10075000536C43F4807353642B6823F003032B60C2
:100760002B6843F003032B60EB6823F00303EB607B
:10077000AB6823F00303AB60AB68A2F58A32A2F545
:10078000807263F00303AB60536843F440335360FB
:10079000334B5A6822F040725A605A6842F08072B5
:1007A0005A605A6842F0806242F480725A609A68D5
:1007B00042F480729A60DA6A22F47002DA62DA6ACB
:1007C000DA621A6942F0C0621A615A6B42F008029A
:1007D0005A639A6842F002029A609A6842F00102F3
:1007E0009A609A6842F080429A6062B61D491E483B
:1007F000134D01F0C5FE1D491D4801F0C1FE002743
:100800002E4600F0FBFC002840F068841FB1194917
:10081000154801F0B5FEDFF860A09AF800306BB320
:10082000D8072BD4002700F059BC00BF0001FA05FF
:1008300010E000E03F0D0300000C004000E100E08C
:10084000200200209C020020003802407064024018
:100850004C20014070020020102D030000ED00E04C
:1008600000200140C2260008391F0008BC260008ED
:10087000251F0008C8260008AC020020AF4A1368F4
:100880009906CFD501238AF80030136803F02003BE
:1008900003F0FF0813B153685FFA83F8A8F161030E
:1008A000192B02D808F0DF0709E0B8F12A0F01BFC1
:1008B000637F03F09F036FF3041363774746637FFF
:1008C00013F0700F40F05781DFF880B29BF80030D2
:1008D000A7F13009002B00F090805FFA89F2092A15
:1008E00040F28B802E2F00F088804E2B7BD01AD8C0
:1008F000462B4CD00ED82A2B7AD0452B7DD1A37F06
:1009000099074CBF46F238304FF47A7001F01EFC64
:10091000E86372E0472B1FD04D2B6ED1884B1B68CC
:1009200084F82F3069E0542B58D004D8502B50D085
:10093000532B36D061E0592B13D05A2B1CD0582B97
:100940005BD1A37F9A074CBF46F238304FF47A70E0
:1009500001F0FCFB286350E0794B1B6885F82E30D2
:100960004BE0AB7F9B074CBF46F238304FF47A70B8
:1009700001F0ECFB606340E0A37F98074CBF46F2B8
:1009800038304FF47A7001F0E1FBA86335E0AB7FBB
:100990009A074CBF46F23830012001F0D7FB28649B
:1009A0002BE094F82F30682B03D06D2B01D08C2BCB
:1009B00004D1042001F0CAFBA0621EE07E33DBB24A
:1009C000022B94BF4FF48060012001F0BFFBA862AE
:1009D00013E0012001F0BAFBA8850EE0584B1B681C
:1009E00085F84C3009E0012001F0B0FB286204E0FA
:1009F000012001F0ABFB85F84D00A7F14103DBB20C
:100A0000192B01D92A2F0AD14D4A8BF8007013797E
:100A1000002103F0800361F3C713116013715FFAC3
:100A200089F9B9F1090F1FD845490A7902F07F0207
:100A3000032A00F3A780A37F08689B0754BF414B9C
:100A4000414B984200F29E800868430003EBC003CC
:100A5000303B3B440B600B79580600F09380013229
:100A600062F30603364A84E0472F3BD016D82E2F78
:100A700078D00AD82A2F5CD02D2F69D0282F40F0AB
:100A80008180637F43F0200356E0452F3DD040D85E
:100A90003B2F77D1637F43F010034DE0532F3CD0C1
:100AA0000FD84E2F41D0502F3BD04D2F6AD1237FEE
:100AB00043F002036FF300032377002384F82E3002
:100AC00060E0582F18D005D8542F5BD1637F43F0D6
:100AD000020331E0592F13D05A2F53D1237F43F013
:100AE000100310E0237F43F001036FF341032377EA
:100AF000002384F82F3045E0237F43F0040302E015
:100B0000237F43F0080323773CE0237F43F0200357
:100B1000F9E7237F43F04003F5E7237F43F08003A9
:100B2000F1E7637F43F0010306E0637F43F00403D2
:100B300002E0637F43F00803637723E00044004052
:100B4000EC020020AE754100FC800200AD020020E6
:100B5000AA4A137963F07F036FF30603137100232E
:100B600013600FE0A54A137959060BD1012161F3F7
:100B70000603137106E09A0604D5292F04BF6FF30C
:100B800045136B77617F01F0080303F0FF022BB977
:100B900095F84E3088EA030885F84E800A2F02D077
:100BA0000D2F7FF43FAEA38B23F4FE739B059B0DAB
:100BB0004BB92B7F13F07C0F1FBF43F001032B7742
:100BC000012385F82E3094F84E3094F84D00984269
:100BD00002D0002A40F053820F060BD5226B236807
:100BE00013442363626B636813446363A26BA3685B
:100BF0001344A363E36913F4C03294F848300CBF84
:100C000062F3000343F00103880785F84830207F32
:100C100042BF7B4B94F84C201A7010F0010300F097
:100C2000AA8095F82E701C2F51D017D8042F36D0DB
:100C30000BD82FB3012F40F09B8001F093FC0022D2
:100C40001146704800F0A6FB12E2142F3AD0152F7F
:100C500040F08E80AB7F6FF3410336E05C2F56D0BF
:100C600008D85A2F4ED05B2F40F082806B7F43F024
:100C700080034AE0A12F70D0A22F00F0F98177E025
:100C800001F070FCD5F840805E4842F6E0633A46D9
:100C900039462B6400F07EFBC5F84080E8E101F0A6
:100CA000C7F86B7FD90740F1E381A38D002B00F0DB
:100CB000DF8100F071FF012000F08AFAAB8D013B6B
:100CC000AB85F2E7AB7F43F00203AB77D0E101F0F5
:100CD000AFF82A7F02F0040202F0FF0312B101F024
:100CE000E3F80123227F120702D501F0ABF80123BC
:100CF000227FD70600F1BC81002B40F0B98101F0C2
:100D0000D3F832E06B7F6FF3C7136B77B0E101F07C
:100D10008FF82A7F02F0040101F0FF0311B12B6B61
:100D20002B600123100742BF636B63600123D10670
:100D300042BFA36BA3600123970602D5E36BE36078
:100D400008E03BB9F363F360B363B360736373604C
:100D50003363336000F0D6FA8AE1400701D501F031
:100D6000A3F8237F190740F1838101F06BF87FE13D
:100D70003A46254979E1820740F17A8195F82F209A
:100D8000682A00F0908023D8072A00F0BE800CD893
:100D9000032A00F0858004D8002A68D0022A66D091
:100DA00062E1052A80F064815EE1542A5FD009D8AF
:100DB000522A70D0532A40F05781B37F43F0010389
:100DC000B37755E1652A6BD0672A00F051814BE17A
:100DD000732A00F0278119D86E2A00F0498105D8BE
:100DE000692A75D06A2A00F090803DE1702A00F0EF
:100DF0009D80722A00F0AA8036E100BFEC0200203C
:100E00009802002050020020CC2600088C2A00F016
:100E10002F8125D8742A00F00D81772A40F0248193
:100E200001F0BEFB0A2000F0D3F9AE49AE4801F054
:100E3000A7FBAE4BAC481B691A0654BFAC49AD4981
:100E400001F09EFBAC49A84801F09AFBAB4BA648C9
:100E50001B695B0654BFA649A64901F091FB50E00F
:100E6000DC2A00F0EB80DD2A00F0F380FCE000F0EB
:100E7000DFFFA34B5A8812B100225A809A80A14BFF
:100E8000A14999484FF000729A61069A00231370A5
:100E900001F076FBECE0AA7F63F30002AA77E7E0BB
:100EA00001F060FBE4E0030640F1E28011F0010391
:100EB00008BFAB8594F82C20002A40F0D980904BD5
:100EC000298D5888884200F0D38059809A80CFE0DD
:100ED000CF075CBF0223B38596F82C70022F05D193
:100EE00081488A4901F080F8002008E0002F40F096
:100EF000BF807D4886493A4601F076F8384601F0D1
:100F0000EFFA0A2001F018F8B2E011F0010308BF6F
:100F1000A385000640F1AC8094F82C0094F82810CA
:100F2000002840F0A58000F02FF9A1E0794A136075
:100F3000794A1178794A1170794A1360714A4FF0F1
:100F400000719161774A137072B6FEE7744B1F68A7
:100F5000002F3DD0744BD7F830901B69C3EB0903C9
:100F6000059307F11C0B4FF000085BF8042F059860
:100F7000B2FBF9F14B4609FB112200F04FF96B4B24
:100F80006B4953F82830B1FBF3F103FB01F2C2F5D2
:100F9000742202F5107200F041F95FFA88F10790AF
:100FA000384600F0D9F957F82830079A00FB12307C
:100FB000604B43F8280008F10108B8F1040FD4D1C0
:100FC0003B7ED90748BFB2665B4A3B69D36609E0FE
:100FD000584FA7F15C0EBEE80F000FC79EE8070050
:100FE00087E80700EB6E0293AB6E01936B6E009384
:100FF0002B6EEA6D51493C4800F0F6FF484B1B68E8
:10100000002B35D0454B1F78434B93F8008000F000
:10101000F5F8002814BF4623202300933A464346A0
:10102000474903E00123474900931A462E4800F040
:10103000DBFF1DE0444B01221A7019E0070617D5AB
:10104000B36A9B010C33192293FBF2F3A6F84630E6
:101050000EE000060CD5B36A9B010C33192293FBFA
:10106000F2F3A6F8443003E038491F4800F0BCFF13
:10107000637F590708D52B6A01336B6204E06A6A03
:101080003349194800F0B0FF217F3248627F0023C6
:1010900001F0040163F3820121772F4984F84E3077
:1010A0000B7002F08102017984F84D3063F3000285
:1010B000627701F08001120663F3C71142BFAB6390
:1010C0006B632B630360E369017113F4C03F4FF05E
:1010D000000300D0EB638AF80030012700F05CFDCC
:1010E000FFF78FBBCF270008391F00080008024018
:1010F000D6270008E1270008E7270008000402407F
:101100002E06002000000240DE260008E52600082A
:10111000E826000810E000E02C0600201C06002055
:10112000200600203A060020F4020020AC26000829
:1011300040420F007C02002020020020F026000820
:101140000F2700081F27000824060020EE270008AC
:1011500000280008EC020020AD0200200000000082
:1011600080B500BFAFF30080AFF30080AFF3008025
:1011700048B100BF092700BFA7F10107002FFAD12E
:10118000013880B2F4E780BD0F4A142303FB00232B
:1011900010B4D9740D4B03EBC00294791CB153F811
:1011A0003030196008E053F83000938807298CBF6D
:1011B000002210229340036019B15DF8044B01F046
:1011C000EFB95DF8044B7047CE02002030280008CC
:1011D00008B50346412B05D94FF6E750FFF7C0FF8E
:1011E000413BF7E7C3EB431003EB8000C00002383C
:1011F00080B2BDE80840FFF7B3BF0000054B064AC8
:101200001B781078062B94BF01330023C31A584271
:10121000584170472C0600201C06002070B5051EA2
:101220004FF00004BABF6D4201260026204695B15A
:1012300015F0010F05D014449C42084424BF01302E
:10124000E41A520093424FEA41014FEA65059CBF00
:101250000131D21AEBE7B4EB530F88BF013006B16E
:10126000404270BDF0B5224A00211170027F12F099
:10127000080F204A14BF10214FF480119161017FA3
:10128000C9064CBF4FF480614FF080619161027FCD
:1012900012F0400F184A14BF20214FF40011916141
:1012A000016B164A49084942D16091605160116052
:1012B0000021034682F8241000F1200402F11406F4
:1012C00000F1300720686168354603C50834BC4228
:1012D0002E46F7D1002111611A7F42F002021A77DF
:1012E000074A9B6B516B0B4453630223D360F0BDE1
:1012F0002D0600200004024000000240F4020020FD
:10130000000C00402DE9F041DFF848800D4F00242B
:101310000D4E58F8242057F8241056F824000B4B93
:101320000B4DFFF77BFF45F824000134032CEFD170
:10133000084A064BD268F0680021FFF76FFFE860AB
:10134000BDE8F081C02800082002002040420F00C4
:10135000B0020020AC26000819B9037F13F0080F73
:101360000AE0012903D1037F13F0100F04E00229E2
:1013700007D1037F13F0200F0CBF4FF0FF30012087
:101380007047032903D1037F13F0400FF4E74FF0B8
:10139000FF3070472DE9F04F074699B08846154653
:1013A000FFF72CFF18B16420FFF7DAFEF8E79F4B38
:1013B0009F491B789F4E0A68062B9CBF5C1CE4B2B9
:1013C0004FF0600388BF044603FB046B00238BF8D7
:1013D0005E80ABF81C308BF85F5088461AB1127FE4
:1013E000550748BF0B60BE46BEE80F005D460FC5FF
:1013F0009EE8070085E80700602202FB0462D18AAC
:10140000B1F5807F07D092F85E3023B913694B4362
:1014100080331B0A13618849DFF82CA20A78DFF8B1
:101420002492602303FB04630025501C1D655D6549
:101430009D65087083F85C2057F825005AF8253020
:101440007E49C21A82EAE273A3EBE27308AA51F85A
:10145000251042F825307A4B59F82520FFF7DEFE9B
:101460000CAB43F825000135032DE5D123B203EB86
:1014700043035B0103F1200535446021DFF8D0E12F
:101480000493281F002301FB04610CAA52F823C017
:101490005EF823204EF823C0C2EB0C0282EAE27908
:1014A000A9EBE279D24340F8049FD20F5FFA83FCA4
:1014B000DFF89C9123B991F81CA062F3C30A08E0FD
:1014C00091F81CA0BCF1010F0CBF62F3041A62F387
:1014D000451A0133032B81F81CA0D6D1D7F80CA0F4
:1014E000584A574BD26800215046FFF797FEBB8AF7
:1014F0000F90B3F5807F06D0584380304FF480734F
:1015000090FBF3F00F903B7ED80721D44E4B0F9900
:10151000DB68D9F80C20C9F80C10C3EB0A0A8AEA78
:10152000EA73A3EBEA730B9360238A1A03FB046349
:1015300082EAE270A0EBE270197FD862D243D20F48
:1015400062F3861119776020002300FB04601FE01E
:101550008AEAEA73A3EBEA730F9A0B93602303FB07
:10156000046382EAE271A1EBE2716FEA0A0A1A7F70
:10157000D9624FEADA7A6AF386121A77E3E72968C2
:10158000026B914207D80133042B05F104050BD0FF
:10159000DFB2002BF3D12A68026308AA80F85D70DD
:1015A00052F823204263EEE7602303FB04631A6BC7
:1015B0003AB91A7F42F001021A771A69224B1A616E
:1015C00039E200F0EDFF214B4FF400729A6108AA56
:1015D0002CCAD5B902B10BB9D51860E09A4234BF14
:1015E0001146194640F2B91528BF1346B3EB011F47
:1015F00040F2EF3205FB01F502FB03553CBF282208
:1016000002FB135505F5007548E00AB9002B48D0D8
:101610009A4236BF1946114613468D421AD39D424F
:101620001BD32A461D46134617E000BF2C06002098
:10163000E40200201C030020E2020020C028000871
:1016400040420F00AC2600082002002000000240AB
:10165000B00200200A462946154640F253326A433A
:101660004FF4577000FB0320B3EB450F4FF40272A9
:1016700002FB010238BF4FF493704FEA810138BF7B
:1016800000FB13228B423CBF712000FB13228D42D2
:101690003CBF282303FB152202F50075AD0A05B9EE
:1016A0000B9DDFF84893602303FB04634FF4166C33
:1016B00040F6C41E00211F6B0CFB05F20846B2FB6E
:1016C000F7F20EFB02F208AB53F821300CFB03F3E8
:1016D000B3FBF7F30EFB03FA59F82130BAFBF3F32F
:1016E0000131984238BF18460429ECD1602303FB2E
:1016F00004634FF060091969B2FBF1F1884291BFB0
:1017000099649864B2FBF0F21A6109FB046309FB67
:1017100004691A69D9F83400B2F5803F24BF4FF646
:10172000FF721A61D9F81060B6FBF5F12B4605FB84
:101730001162FFF773FD99F85D20A84BC9F84C5072
:1017400053F82230D8F800504043B0FBF3F07B0848
:10175000984228BF1846C9F84000381AC9F8440012
:10176000002D00F02D812B699E4228BF1E462B6B59
:101770000293029AB6FBF3F3039302FB1363059300
:1017800005F11C0301964FF0000A1E460DF14008BA
:10179000029B059A039956F8040FFFF73FFD019B42
:1017A000B3FBF7F1049B48F80A000AEB03008C4BEB
:1017B000019A184407FB11223B46006AFFF72EFDF1
:1017C0000DF1500949F80A000AF1040ABAF1100FA4
:1017D000DED100264FF400775FFA86FA514628469C
:1017E000FFF7BAFD514602905846FFF7B5FD029B40
:1017F00059F82610834258F8263004D19942CCBFBC
:10180000CB1A5B1A00E00B4443B1764A52F826101B
:101810000902B1FBF3F39F4228BF1F460136042E95
:10182000DAD1FF2F6E4A98BF019E4FF0600303FB91
:10183000042393BF7E43019A1A65360A98BF1E653A
:10184000002D00F0BD80664A602303FB0428D8F811
:101850005030002B00F0B4802F7FC7F34003029379
:10186000002B40F0AD8072B695F85C30069398F886
:101870005C30079362B6D8F850300393D8F8303014
:101880002A690193EB6C686BB2FBF3F103FB112245
:10189000FFF7C4FCD8F84CA0D8F83430D8F81020A2
:1018A0000593B2FBFAF104900AFB11225346059806
:1018B000D5F854902F6BFFF7B1FC039A039BB3FB51
:1018C000FAF106460AFB112253460598FFF7A6FCDB
:1018D00098F85D20414B53F82210019A4043B0FB29
:1018E000F1F309EB0700904228BF1046984228BF49
:1018F0001846002864D0049A5243B2FBF1F2904299
:1019000004D1C9EB0002DDF808A01DE081450ED925
:10191000C0EB0903C3EB070EC9EB02094FEA5E0EE9
:10192000CE45724628BF4A4603EB020A0CE0C9EBDB
:101930000009C9EB07034FEA530E131A734528BF7A
:1019400073469A4609EB03027643B6FBF1F6B042C2
:101950000CD00199C0EB010E4FEA5E01C0EB060E00
:101960008E4528BF8E4600EB0E0601E04FF0000EBC
:1019700072B6297F890722D495F85C3006998B428C
:101980001DD117494FF0600C0CFB041191F81CC0DD
:10199000CCF3400CBCF1000F11D191F85C80079B97
:1019A00098450CD1019BA865CAEB07079E1B2A64CA
:1019B0006F64C1F840E04E64C1F858C0486562B633
:1019C00007490948602202FB0412536DD36392F861
:1019D0005D506BB950F8253019E000BF2028000891
:1019E0001C030020B028000810290008D028000897
:1019F00007EE903AF8EE677AF1EEE77AFCEEE77AD6
:101A000050F8250017EE903A5B00B0FBF3F39363B8
:101A1000602202FB04135E469A6C996B134D91424F
:101A200038BF9A630FCE0FC596E8070085E8070018
:101A30000F4BC3F800B00F4A602303FB04231B7F46
:101A4000DB070FD40C4B0D4A1C70136853B90C49BB
:101A50004B624B630B4BC2F800B058461C70FFF74B
:101A600001FC62B619B0BDE8F08F00BF2002002073
:101A7000E40200201C0300202C0600202006002089
:101A8000000C00401C0600203D49D1F8883043F48A
:101A90007003C1F888303B4B1A68002042F0010205
:101AA0001A6098601A6822F0847222F480321A60F8
:101AB000354A5A601A6822F480221A604FF0006298
:101AC000D8608A601A6C314942F080521A640A6800
:101AD00042F440420A601A6822F480321A6019689F
:101AE000284A8903FBD4136843F4803313601368D6
:101AF000244913F4003FFAD00B6823F080730B6085
:101B00000A68204B9001FBD4214A5A601A6842F0BF
:101B100080721A6019681B4A8901FBD51D4B196830
:101B200001F00F01022910D8196821F00F01196086
:101B3000196841F003011960936823F0F30393607F
:101B4000936843F0020393600FE0916821F0F30182
:101B50009160916841F0020191601A6822F00F02D1
:101B60001A601A6842F003021A60064B9A6822F45F
:101B70007C429A609A6842F480529A60704700BF33
:101B800000ED00E0003802401030002400700040FA
:101B900004324108003C02402DE9F74F924F3D4688
:101BA000924E3378002B00F01C81914883790446D3
:101BB000002B5FD05A1C012B82710AD0022B59D105
:101BC0004FF0000E72464FF6FF73F446DFF8508276
:101BD00007E0884A936843F0804343F4817393603D
:101BE00048E038F81E108C4538BF8C460EF1010EC7
:101BF0008B4228BF0B461144BEF1060F8AB2F0D1CA
:101C0000CCEB0202D21A042392FBF3F300229BB224
:101C100082714FF0130EC2EB0E01012909DD02EBB8
:101C20006101C9B237F821C09C4534BF0A468E46CF
:101C3000F1E735F822C035F82E1005EB820205EBEE
:101C40008E0E5288BEF802E0CCEB0308CB1A534349
:101C50000EFB0832CCEB0103B2FBF3F34FF6FF723D
:101C60009BB2934206D04188038000295FD1084689
:101C7000FFF78AFADFF8A0A1DFF8A89199F8003001
:101C800003F0FF02002B50D05B4BDB7C53B95B4A67
:101C90001178782940F29E80594A4FF00071916185
:101CA000584A13700123DFF84881A3719AF8003075
:101CB00003F0FF02002B35D0238862889B1A1BB2E9
:101CC00013F1270F08DB272B06DCB8F80430B3F537
:101CD000E15F08D2643304E0A388642B8CBF643BCB
:101CE0000023A8F8043000F02DFC474B08B1002277
:101CF0001A701A78DFF830B12AB14449444800F02C
:101D00003FFC012208E09BF8001039B141494048EE
:101D1000019200F035FC019A8BF800203E4A002326
:101D20001370C3E789F80020A6E7327038E7324A1B
:101D3000DFF8F8A092F81290BAF90CE002EB490033
:101D4000C91A4380108889B2084400B209F1010918
:101D500009F00709704582F812901080934603DC61
:101D6000CEF1000E704501DAA2F800E0B2F900E011
:101D7000DFF884809AE805000BEB490902FB0EF2BC
:101D80000FFA81FC00FB0C20B9F80220D31A1AB21A
:101D9000DAF8083003FB02034FF4806293FBF2F39E
:101DA000FF2B1E4A08DDBCF1000FC4BFC1EB0E01C2
:101DB000A8F80010FF2309E0002B07DABCF1000FA0
:101DC000BCBFC1EB0E01A8F80010002313701178FE
:101DD00000204DE772B613780133DBB2137062B6A0
:101DE00060E703B0BDE8F08F382800082606002021
:101DF0002E06002000200140CE0200202D060020EB
:101E0000000002403A06002024060020882800082E
:101E1000391F0008A128000836060020E80200202B
:101E20007002002025060020CC0200209C02002029
:101E300010B5034C236813B1FFF7AEFEFAE710BDEF
:101E40002006002070B5144E35460FCD88B001AC89
:101E50000FC495E80700114B029384E807000421A2
:101E60000DEB010040F67B2301220593FFF792FA68
:101E700004210B4B02930DEB0100C82300220593B4
:101E8000FFF788FAFFF7D4FF064A002393617360D7
:101E9000FFF738FA08B070BD20020020C0BDF0FF87
:101EA00040420F003C02002070B5134E35460FCD66
:101EB00088B001AC0FC495E80700104B019384E88B
:101EC0000700012240F67B23114601A80593FFF786
:101ED00061FA0B4B01930121C82301A8002205934D
:101EE000FFF758FAFFF7A4FF064A00235361336057
:101EF000FFF708FA08B070BD20020020C0BDF0FF57
:101F000040420F003C020020044B2022DA60044AC9
:101F1000936823F481739360704700BF00640240AC
:101F200000200140034A13681B06FCD5014B586092
:101F3000704700BF00100140034A13681B06FCD520
:101F4000014B5860704700BF004400400146000943
:101F5000092894BF3030373008B5FFF7EDFF01F0A6
:101F60000F00092894BF30303730BDE80840FFF734
:101F7000E3BF10B50446000AFFF7E8FFE0B2BDE892
:101F80001040FFF7E3BF000038B50F4B04460921AE
:101F900053F8042DA24203D9013911F0FF01F7D102
:101FA0000A4D55F8212000239442D8B203F10103D1
:101FB00001D3A41AF8E73030C0B2FFF7BDFF0139F2
:101FC000C9B2FF29EDD138BD10290008E828000862
:101FD000011E08B503DA2D20FFF7AEFF494208467F
:101FE000BDE80840FFF7D0BF0EB42DE9F74109ABBB
:101FF000002453F8045B534E01932146A3B2E85CDE
:10200000002800F09A80002900F08D80A0F1630381
:10201000152B00F28480DFE803F02E1C828282827E
:102020008282820B828282824F828B820D828233F5
:10203000042180E0019B012903F10402019201D1F6
:10204000187803E002290CBF18881868FFF79CFF76
:1020500067E0019B012903F10402019202D193F987
:10206000000003E0022904D1B3F90000FFF7B0FF3C
:1020700057E01868FAE7019B1A1D019218784EE0A4
:102080003020FFF759FF7820FFF756FF019B012909
:1020900003F10402019203D11878FFF757FF40E0E3
:1020A000022901D1188804E01F68380CFFF761FF8E
:1020B000B8B2FFF75EFF34E0019B1F681A1D002FC6
:1020C000019203DA2D20FFF737FF7F421E4BB846FF
:1020D000092153F8042D974205D2013911F0FF016F
:1020E000F7D1032102E0022998BF032156F82120ED
:1020F00000239045D8B203F1010302D3C2EB0808D4
:10210000F7E73030C0B2FFF717FF032902D12E20C6
:10211000FFF712FF0139C9B2FF29E7D101E0FFF74C
:102120000BFF002107E0252804D0FFF705FF02E0A0
:10213000012100E00221013460E703B0BDE8F04175
:1021400003B07047E82800081029000811490B79EE
:102150000A6813F07F0370B50DD0013BDBB20A268D
:102160004BB1B0FBF6F506FB1504A4B21CB9013B5C
:10217000A8B2DBB2F4E7504333B1074A52F8233038
:1021800000EB5300B0FBF3F00B791B0648BF404255
:1021900070BD00BFEC020020E8280008F0B54B4BF2
:1021A0004B4C0022DA601A612368002B71D0494A37
:1021B000D06970B191681D6A491B0029916008DAE5
:1021C0001D6B2944916044494FF4806501388D614D
:1021D000D061166A3F48414D66B1C1685F6AC91B4C
:1021E0000029C16006DA1F6B3944C160013E082135
:1021F000A9610662576A374ED3F830E057B13069AB
:10220000996A401A00283061BFBF07F1FF37704458
:1022100030617762976A2F4E67B17069D96A411A47
:102220000029716106DA714471612B494020013F38
:102230008861B7629169013191611A6B914206D24E
:10224000244A92F82C2082B1DA6B002A0DDC1A7F26
:102250006FF341021A771A7F42F004021A7793F85B
:102260005C20013A83F85C2009E01D4A9B6B002149
:102270001170164A516B0B4453630223D360164B03
:102280004FF080629A614FF40022AA614FF48002FD
:102290009A61236813B11B7F9B0716D4114A124918
:1022A0001378097899420ED0062B9ABF0133DBB21E
:1022B000002313700D4A602000FB03202060BDE85E
:1022C000F040FEF7CFBF00232360F0BD000C0040BC
:1022D00020060020EC020020000002400004024022
:1022E0002D0600201C0600202C0600201C030020C8
:1022F00030B572B64B4B1B6862B64B4802689342CE
:1023000008D04A4A0360002182F82E1082F82F106C
:1023100082F82D10002B00F0848093F85E00434A71
:10232000002849D092F82C40002C45D110F0010132
:1023300016D03F4993F85F50096981F08001C1F3DD
:10234000C011A94209BF92F82D1082F82D40013129
:1023500082F82D1092F82D10032994BF002101213D
:10236000400715D5334993F85F00096981F04001B2
:10237000C1F3801181420ABF92F82E100021013171
:1023800082F82E1092F82E10032994BF002101210B
:1023900091B172B60121906982F82C10196C8842B3
:1023A00024BF196B5C6C58642ABF09184100091BD3
:1023B000196362B60021196472B693F85C50916992
:1023C00062B61A6C914202D25A6D0A4406E05A6C07
:1023D000914226D3186B9A6D0244521A164893F80C
:1023E0005D4012B950F824100EE007EE902AF8EE86
:1023F000677AF1EEE77AFCEEE77A50F8240017EE00
:10240000901A4900B0FBF1F1986C72B693F85C40F9
:10241000AC4204D188422CBF98639963DA6362B6F8
:1024200030BD30BD2006002028060020EC02002030
:1024300000080240000402401029000813490B78EC
:102440009A1CD2B2092A01D80A7019E0083B0B7015
:102450000F4B104901221A700B781344DBB2182B72
:1024600009D9002008700C4B0C491A700B78013305
:10247000DBB2032B01D80B7002E0094B08701A7015
:10248000084B4FF080525A60704700BF370600205B
:1024900026060020380600202506002039060020E8
:1024A0003606002000ED00E000F0070030B5C0F176
:1024B0000704042C28BF04240125031D05FA04F495
:1024C000062B04F1FF348CBFC31E00230C409C403C
:1024D00005FA03F3013B03EA0200204330BD00008C
:1024E0002DE9F041134C144D34F83020134E02F016
:1024F000030303EB8303074603EB8303DBB292087A
:102500003146284604EBC704FFF76EFD28460C4908
:10251000FFF76AFD628802F0030303EB830303EB1A
:10252000830331462846DBB29208BDE8F041FFF74D
:102530005BBD00BF2E060020391F0008E028000800
:10254000E6280008064B5A883AB19B8841F26F7022
:1025500083428CBFFF2000207047FF20704700BFE0
:102560002E06002010B5054C23782BB1FFF7EAFFAB
:1025700010B9FFF711FBF7E710BD00BF24060020DC
:102580000EB478B5059D06460024E3B20134E85C3C
:1025900008B1B047F9E7BDE8784003B070470000E4
:1025A000044B1A780AB901221A70034B00221A70E0
:1025B000704700BF3A0600202D060020DFF830D01B
:1025C000002103E00B4B5B58435004310A480B4B8E
:1025D00042189A42F6D30A4A02E0002342F8043B2A
:1025E000084B9A42F9D3FFF74FFAFDF703FE704705
:1025F0000000022030290008980100200402002079
:10260000040200203C060020FEE7000008B5074B4E
:10261000044613B10021AFF30080054B1868836AAC
:1026200003B19847204600F033F800BF00000000D7
:102630002029000870B50E4B0E4CE41AA41000259A
:102640001E46A54204D056F8253098470135F8E7D4
:1026500000F020F8084C094BE41AA41000251E468F
:10266000A54204D056F8253098470135F8E770BDEB
:10267000F8010020F8010020FC010020F8010020F2
:1026800002440346934202D003F8011BFAE7704765
:10269000FEE700BFF8B500BFF8BC08BC9E46704717
:1026A000F8B500BFF8BC08BC9E467047409C0000CF
:1026B000409C000000E204000F7801006465627530
:1026C000672073746172740A6F6B0A00453A204286
:1026D000616420472D636F64652025640A000A73D6
:1026E000746F700A00543A00545B2573755D3A00AC
:1026F000583A256C712C593A256C712C5A3A256C34
:10270000712C453A256C712C463A256C750A00519E
:10271000756575653A2025642F256425630A004692
:1027200049524D574152455F4E414D453A546561BE
:10273000637570204649524D574152455F55524C82
:102740003A687474703A2F2F6769746875622E63E3
:102750006F6D2F747261756D666C75672F5465614E
:102760006375705F4669726D776172652F20505294
:102770004F544F434F4C5F56455253494F4E3A3199
:102780002E30204D414348494E455F545950453AFB
:102790004D656E64656C2045585452554445525FF2
:1027A000434F554E543A25642054454D505F534590
:1027B0004E534F525F434F554E543A25642048457F
:1027C000415445525F434F554E543A25640A0078B0
:1027D0005F6D696E3A00747269676765726564203F
:1027E000006F70656E2000795F6D696E3A00453A42
:1027F00020426164204D2D636F64652025640A00CA
:102800007273204E256C642045787065637465642E
:1028100020636865636B73756D2025640A00000092
:1028200020BF020020BF0200E45700002424010062
:1028300034000040200001000100240D1500310586
:10284000290050043D00DB0351008D036500530354
:10285000790025038D00FF02A100DE02B500C2024F
:10286000C900A802DD009202F1007D024101370299
:102870007D010C02450296010D0323017103DB006B
:10288000D5035D00F203010057616974696E67202A
:10289000666F72207461726765742074656D700A6A
:1028A0000054656D702061636869657665640A002F
:1028B000C8000000C800000000000000C8000000C0
:1028C0000000000000000000000000000000000008
:1028D0007017000070170000C8000000701700009B
:1028E00025752E2575002F00010000000A0000004C
:1028F00064000000E803000010270000A08601002B
:1029000040420F008096980000E1F50500CA9A3B0E
:1029100022CA0A0022CA0A008ED0030070F4060000
:082920009801002000000000F6
:102930000000000000000000000000000000000097
:102940000000000000000000000000000000000087
:102950000000000000000000000000000000000077
:102960000000000000000000000000000000000067
:102970000000000000000000000000000000000057
:102980000000000000000000000000000000000047
:0C299000BD0100089901000800000000D3
:04000005080025BD0D
:00000001FF
